:100EB6000A128A115E2F031383160614861406156A
:100EC600861506160810881008118811081288124F
:100ED600081383120608A00020081039A500A50CE7
:100EE600A50CA50CA50C25080139A5002008083974
:100EF600A400A40CA40CA40C24080139A400200806
:100F06000439A300A30CA30C23080139A30020086D
:100F16000239A200A20C22080139A20020080139D8
:100F2600A10021080139A10020081039B000B00C39
:100F3600B00CB00CB00CB00930080139B000200874
:100F46000839A900A90CA90CA90CA9092908013975
:100F5600A90020080439A800A80CA80CA80928088C
:100F66000139A80020080239A700A70CA7092708FD
:100F76000139A70020080139A600A609260801396B
:100F8600A60030082405B10030082205B200210869
:100F96002805B30031083204B40033083404B50020
:100FA600270828052105B60025082305B7002508CA
:100FB6002905B800360837043804B900240828057E
:100FC600C000230827053804C1002808220531047B
:100FD600C20024082305C3008801351808143918EF
:100FE600881438180815401888154118081642182C
:0A0FF6008816431808176D2F6D2FA1
:02400E00B13FC0
:00000001FF
